:020000040800F2
:100000000000032041090008910900089109000837
:1000100091090008910900089109000800000000FA
:10002000000000000000000000000000910900082E
:10003000910900080000000091090008CD0800089F
:100040009109000891090008910900089109000828
:100050009109000891090008DD08000891090008CD
:100060009109000891090008910900089109000808
:1000700091090008910900089109000891090008F8
:1000800091090008910900089109000891090008E8
:10009000910900089109000891090008FD0800086D
:1000A00091090008910900089109000891090008C8
:1000B00091090008910900089109000891090008B8
:1000C00091090008910900089109000891090008A8
:1000D0009109000891090008910900089109000898
:1000E0001D090008910900089109000891090008FC
:1000F0009109000891090008910900089109000878
:100100009109000891090008910900089109000867
:100110009109000891090008910900089109000857
:100120009109000891090008910900089109000847
:100130009109000891090008910900089109000837
:100140009109000891090008910900089109000827
:100150009109000891090008910900089109000817
:100160009109000891090008910900089109000807
:100170009109000891090008910900080000000099
:1001800091090008910900089109000891090008E7
:1001900091090008910900089109000891090008D7
:0C01A0009109000891090008910900086D
:1001AC0010B5054C237833B9044B13B10448AFF3A5
:1001BC0000800123237010BD0C0000200000000003
:1001CC00DC09000808B5034B1BB103490348AFF326
:1001DC00008008BD0000000010000020DC090008B1
:1001EC00034AD2F8883043F47003C2F88830704761
:1001FC0000ED00E070B500F02BF900F07BF900F099
:10020C008FF900F0DBF900F017FA00F0ADF900F00F
:10021C0097FA7E4B19687E4A11601A687D4B1A60FA
:10022C00002306E0794A11687B4A42F82310013317
:10023C00DBB2052BF6D90020784B187000F038FB98
:10024C007AE00024764B1C70764A1378B3FA83F369
:10025C005B09137000F074FA704B1C706B4D2A68BC
:10026C006B4B1A60204600F023FB00F069FA204625
:10027C0000F086FA6C4B01221A702A68654B1A60E2
:10028C0020460CE0614B1A68634B43F82020674B07
:10029C0001221A54664B00221A540130C0B20528B0
:1002AC00F0D9644B00221A704AE0594B1A605B4A31
:1002BC00137801336048A0FB0310800800EB40006A
:1002CC004100581AC0B2107000F0F2FA48E04F4BDF
:1002DC001D68554B1878052800F295804D4B1B680E
:1002EC00EB1A40F6B73293424FD8544B1B788BB174
:1002FC00524B00221A704F4B18784D4C235C013333
:10030C00A2F15532A2FB031202F4FF7101EB52026F
:10031C009B1A23544A4B1B7873B1494B00221A7019
:10032C0044490A780132444BA3FB02039B0803EBBC
:10033C0043035800131A0B70394B1B78002B80D1D8
:10034C00384B1B78002BC2D1304B1A683D4B1978B7
:10035C003D4B53F821102E4B1B68D31A8B42A4D261
:10036C00364B1B78002BE7D0344B00221A703548E3
:10037C0003780133A2F15532A2FB031202F4FF7190
:10038C0001EB52029B1A0370D6E700F0F9F9264AEA
:10039C0013780133DBB213701E4A1560062BA4D1FF
:1003AC0000230AE01C4A42F82350204A0121D15470
:1003BC001F4A0021D1540133DBB2052BF2D994E74B
:1003CC00204600F0DDF9194B01221A550134E4B234
:1003DC00052C8AD8164B1A5D1C4B53F822200E4B59
:1003EC0053F82430EB1A9342F0D30B4B43F82450C0
:1003FC000E4B1B5D002BE3D0204600F00DFA0B4B8F
:10040C0000221A55E2E70024E2E700BF6800002052
:10041C004C000020440000202C0000205000002044
:10042C005E0000205B00002048000020040000203B
:10043C005400002028000020ABAAAAAA5D000020CE
:10044C005C0000205A000020000A0008F409000893
:10045C00234B1A6C42F080521A6422490A6842F407
:10046C0040420A601A6842F480321A601C4B1B68C6
:10047C0013F4003FFAD01C4A136823F00F0343F027
:10048C0005031360A2F58062936823F47C4323F088
:10049C00F00343F414439360144B5360136843F01C
:1004AC00807313600E4B1B6813F0007FFAD00C4A5C
:1004BC00936823F0030343F002039360084B9B689B
:1004CC0003F00C03082BF9D1054A136823F0010340
:1004DC001360074B02F14A4202F5A1321A607047D1
:1004EC000038024000700040003C024008544007B5
:1004FC00000000204FF0E0231A6922F001021A617B
:10050C00064A5A6100229A611A6922F007021A619E
:10051C001A6942F007021A61704700BF3F9002004F
:10052C000F4A136B43F0010313630E4B1A6822F04E
:10053C0003021A601A6822F440621A605A6822F0A8
:10054C0001025A605A6822F020025A60DA6842F0BE
:10055C000102DA60DA6842F48062DA60704700BF48
:10056C000038024000000240114A536C43F48043AF
:10057C005364104B5A6922F0F0025A615A6942F0E6
:10058C0020025A6103F580631A6842F400521A6023
:10059C009A6822F400529A60DA6842F40052DA60E7
:1005AC00054B202283F828234FF480725A60704741
:1005BC00003802400038014000E100E01B4A536C57
:1005CC0043F4804353641A4B9A6822F00F029A60EA
:1005DC00DA6822F0F002DA6003F580639A6822F0A0
:1005EC0021029A60DA6822F02102DA60DA6842F0BD
:1005FC000102DA60DA6842F02002DA609A6842F0AE
:10060C0020029A601A6842F021021A6021225A6173
:10061C00084B502283F8062340221A60602283F88C
:10062C0017234FF400021A60704700BF00380240D5
:10063C000038014000E100E03F4A136B43F008032F
:10064C0013633E4B1A6842F004021A605A6822F097
:10065C0002025A609A6842F008029A60DA6822F044
:10066C000C02DA609A6942F400329A611A6842F01C
:10067C0010021A605A6822F004025A609A6842F01A
:10068C0020029A60DA6822F03002DA609A6942F449
:10069C0080229A611A6842F040021A605A6822F06D
:1006AC0008025A609A6842F080029A60DA6822F076
:1006BC00C002DA609A6942F400229A611A6842F424
:1006CC0080721A605A6822F010025A609A6842F4DA
:1006DC0000729A60DA6822F44072DA609A6942F425
:1006EC0080129A611A6842F480621A605A6822F089
:1006FC0020025A609A6842F400629A60DA6822F426
:10070C004062DA609A6942F400129A611A6842F403
:10071C0080521A605A6822F040025A609A6842F479
:10072C0000529A60DA6822F44052DA609A6942F414
:10073C0080029A61704700BF00380240000C0240F2
:10074C00084B4FF4FC029A610023074A1370074AC6
:10075C001370074A1370074A1370074A1370074A3D
:10076C0013707047000C02406400002063000020EE
:10077C006200002061000020600000205F0000206B
:10078C00052839D8DFE800F0030C151E27301B4A6A
:10079C00936943F002039361194B01221A7070475D
:1007AC00164A936943F004039361164B01221A70A5
:1007BC007047124A936943F008039361124B01226C
:1007CC001A7070470D4A936943F0100393610F4BF5
:1007DC0001221A707047094A936943F02003936110
:1007EC000B4B01221A707047044A936943F0400383
:1007FC009361084B01221A70704700BF000C024035
:10080C0064000020630000206200002061000020D2
:10081C00600000205F000020052839D8DFE800F0D8
:10082C00030C151E27301B4A936943F40033936164
:10083C00194B00221A707047164A936943F48023AF
:10084C009361164B00221A707047124A936943F455
:10085C0000239361124B00221A7070470D4A936962
:10086C0043F4801393610F4B00221A707047094AAE
:10087C00936943F4001393610B4B00221A70704779
:10088C00044A936943F480039361084B00221A7065
:10089C00704700BF000C0240640000206300002081
:1008AC006200002061000020600000205F0000203A
:1008BC0010B50446FFF744FF2046FFF761FF10BD5B
:1008CC00024A136801331360704700BF68000020B0
:1008DC00054B5B6913F0010F04D00123034A13701D
:1008EC00014A5361704700BF003C01405E0000208C
:1008FC00054B5B6913F0200F05D0044B01221A70D5
:10090C00014B20225A617047003C01405D000020E1
:10091C00064B5B6913F4005F06D0054B01221A707D
:10092C00024B4FF400525A61704700BF003C01402B
:10093C005C000020DFF834D00D480E490E4A00232D
:10094C0002E0D458C4500433C4188C42F9D30B4A77
:10095C000B4C002301E013600432A242FBD3FFF7DF
:10096C003FFC00F011F8FFF745FC70470000032036
:10097C00000000200C000020140A00080C000020CD
:10098C006C000020FEE7000070B50D4D0D4C641B93
:10099C00A4100026A64209D10B4D0C4C00F018F8FF
:1009AC00641BA4100026A64205D170BD55F8043B6B
:1009BC0098470136EEE755F8043B98470136F2E7C5
:1009CC000C0A00080C0A00080C0A0008100A00089F
:1009DC00F8B500BFF8BC08BC9E467047F8B500BF20
:0809EC00F8BC08BC9E467047F0
:1009F400C40900002B0200004D0100008206000023
:080A040001030000A001000045
:040A0C00D10100080C
:040A1000AD0100082C
:0C0A14000024F4000101010101010000B8
:0400000508000941A5
:00000001FF
