:020000040800F2
:1000000000000320DD040008290500082905000878
:10001000290500082905000829050008000000003E
:10002000000000000000000000000000290500089A
:10003000290500080000000029050008290500081E
:1000400029050008290500082905000829050008D8
:1000500029050008290500082905000829050008C8
:1000600029050008290500082905000829050008B8
:1000700029050008290500082905000829050008A8
:100080002905000829050008290500082905000898
:100090002905000829050008290500082905000888
:1000A0002905000829050008290500082905000878
:1000B0002905000829050008290500082905000868
:1000C0002905000829050008290500082905000858
:1000D0002905000829050008290500082905000848
:1000E0002905000829050008290500082905000838
:1000F0002905000829050008290500082905000828
:100100002905000829050008290500082905000817
:100110002905000829050008290500082905000807
:1001200029050008290500082905000829050008F7
:1001300029050008290500082905000829050008E7
:1001400029050008290500082905000829050008D7
:1001500029050008290500082905000829050008C7
:1001600029050008290500082905000829050008B7
:1001700029050008290500082905000800000000DD
:100180002905000829050008290500082905000897
:100190002905000829050008290500082905000887
:0C01A000290500082905000829050008B1
:1001AC0010B5054C237833B9044B13B10448AFF3A5
:1001BC0000800123237010BD00000020000000000F
:1001CC007405000808B5034B1BB103490348AFF392
:1001DC00008008BD00000000040000207405000829
:1001EC0082B0019000E000BF019B5A1E0192002BCF
:1001FC00F9D102B0704738B50546002404E040F64A
:10020C00D860FFF7EDFF0134AC42F8D338BD0000E5
:10021C00F0B591B0A74A136B43F00E031363A64BD2
:10022C001968A64A0A401A601968A54A0A431A6056
:10023C0003F580631A6822F040621A60DA6822F0D3
:10024C004062DA6003F580631A6822F44C421A604B
:10025C00DA6822F44C42DA60DA6842F48842DA60F6
:10026C000024ADF83C408DF83E40ADF838408DF898
:10027C003A40ADF834408DF836400A940B940C9407
:10028C00904D55F8043BADF824301B0C8DF82630FE
:10029C006E460FCD0FC60FCD0FC62B6833602746A9
:1002AC0025462646EEE040F22620FFF799FF864BC6
:1002BC001B6913F4005F40F0EC80002C40F0E980E7
:1002CC002346012201E00133DBB2022B08D803F1F3
:1002DC004001694411F8041C0029F4D10A46F2E7E4
:1002EC00CAB9022A29D802F140036B4413F8043C22
:1002FC00ABB10132D2B2F4E704F140036B440021FC
:10030C0003F8041C13F81C1C103101238B406A49A0
:10031C008B610134E4B2022CEED91446B9E002F13F
:10032C0040030DEB0302012402F8044C12F81C3CB0
:10033C0004FA03F3604A9361ABE00124A9E040F2B4
:10034C002620FFF74DFF614B1B6913F0200F40F087
:10035C00A780002D40F0A4800137FFB2022F01D8F6
:10036C0001259DE02F4601259AE040F22620FFF75B
:10037C0037FF564B1B6913F0800F40F09880002E0E
:10038C0040F0958007F140030DEB030212F8083C96
:10039C00B3FA83F35B0902F8083C12F80C3C013306
:1003AC00DBB202F80C3C022B07D9002207F1400308
:1003BC006B4403F80C2C012679E0012677E003F15D
:1003CC0040026A4412F81C1C103101228A403A493E
:1003DC008A61002110AA02EB830242F8181C0EE07D
:1003EC0003F14001694411F81C0C01218140324891
:1003FC00816110A901EB8302002142F8181C013322
:10040C00DBB2022B3BD803F14001694411F8041C08
:10041C000029D4D003F14001694411F8081C0029CB
:10042C00DED010A901EB830151F8180C013041F812
:10043C00180C03F14001694411F80CCC03EB430197
:10044C0061440DF1400C0CEB810151F8401C8842C9
:10045C00D5D3DFF864C0DCF8141003F14000684415
:10046C0010F81CEC012000FA0EF04140CCF81410EE
:10047C0010A901EB8302002142F8181CBFE70120F0
:10048C00FFF7B9FE104B1B6913F4005F3FF40BAF81
:10049C0000240E4B1B6913F0200F3FF450AF0025C6
:1004AC000A4B1B6913F0800F3FF45FAF002600234B
:1004BC00A7E700BF0038024000040240FC3FFFCF1A
:1004CC00014000108C05000800080240000C02409E
:1004DC00DFF830D00C480D490D4A002302E0D45807
:1004EC00C4500433C4188C42F9D30A4A0A4C002372
:1004FC0001E013600432A242FBD300F011F8FFF7C5
:10050C0087FE704700000320000000200000002040
:10051C00BC050008000000201C000020FEE70000C5
:10052C0070B50D4D0D4C641BA4100026A64209D1CC
:10053C000B4D0C4C00F018F8641BA4100026A642BE
:10054C0005D170BD55F8043B98470136EEE755F8D8
:10055C00043B98470136F2E7B4050008B4050008DF
:10056C00B4050008B8050008F8B500BFF8BC08BC15
:10057C009E467047F8B500BFF8BC08BC9E46704755
:10058C0000070E0046000000FA000000F401000015
:10059C005A0000005E0100005802000078000000C4
:0805AC0090010000BC020000F8
:0405B400D101000869
:0405B800AD01000889
:04000005080004DD0E
:00000001FF
