:020000040800F2
:1000000000000320F5040008410500084105000830
:1000100041050008410500084105000800000000F6
:100020000000000000000000000000004105000882
:1000300041050008000000004105000841050008D6
:100040004105000841050008410500084105000878
:100050004105000841050008410500084105000868
:100060004105000841050008410500084105000858
:100070004105000841050008410500084105000848
:100080004105000841050008410500084105000838
:100090004105000841050008410500084105000828
:1000A0004105000841050008410500084105000818
:1000B0004105000841050008410500084105000808
:1000C00041050008410500084105000841050008F8
:1000D00041050008410500084105000841050008E8
:1000E00041050008410500084105000841050008D8
:1000F00041050008410500084105000841050008C8
:1001000041050008410500084105000841050008B7
:1001100041050008410500084105000841050008A7
:100120004105000841050008410500084105000897
:100130004105000841050008410500084105000887
:100140004105000841050008410500084105000877
:100150004105000841050008410500084105000867
:100160004105000841050008410500084105000857
:100170004105000841050008410500080000000095
:100180004105000841050008410500084105000837
:100190004105000841050008410500084105000827
:0C01A00041050008410500084105000869
:1001AC0010B5054C237833B9044B13B10448AFF3A5
:1001BC0000800123237010BD00000020000000000F
:1001CC008C05000808B5034B1BB103490348AFF37A
:1001DC00008008BD00000000040000208C05000811
:1001EC0000B58FB000F0B2F800F0B8F800F0C6F827
:1001FC0000F0D4F800F0E2F800F0F8F800F00EF996
:10020C003C4B3D4A9A6103F540634FF080629A6122
:10021C0035E0384B4FF080429A613EE0354B4FF45D
:10022C0000029A6146E0334B4FF480329A6104E04D
:10023C00324B1B68B3F1553F4CD0314B0D93314BC6
:10024C000C93314B0B93314B0A93314B0993314B3C
:10025C000893314B0793314B0693314B0593314B3C
:10026C000493314B0393314B0293314B0193314B3C
:10027C000093314B314A3249324800F0E7F8324BA7
:10028C001B6913F0080FC4D11C4A136803F0AA337E
:10029C001360184B4FF480429A612B4B1B6913F07F
:1002AC00200FBBD1154B4FF055321A60A3F54063AC
:1002BC0080229A61114B1B68002BB9D103F180434A
:1002CC0003F504331B6913F4806FACD1094B012285
:1002DC009A61B2E7094B1B6913F4806F04D1074B89
:1002EC004FF480629A61A8E7044B4FF080629A61E8
:1002FC00A3E700BF00040240000081400010024050
:10030C001C0000201D0000201E0000201F000020EB
:10031C0020000020210000202200002023000020CB
:10032C0024000020250000202600002027000020AB
:10033C0028000020290000202A0000202B0000208B
:10034C002C0000202D000020000C0240024A136BF0
:10035C0043F01A031363704700380240064B1A68C7
:10036C0022F0C0021A60DA6822F0C002DA60DA68A1
:10037C0042F04002DA607047000C0240064B1A68EB
:10038C0022F440621A60DA6822F44062DA60DA68B9
:10039C0042F48062DA607047000C0240064B1A6827
:1003AC0022F440121A60DA6822F44012DA60DA6839
:1003BC0042F48012DA607047001002400A4B1A684F
:1003CC0022F003021A601A6842F001021A605A689D
:1003DC0022F001025A609A6842F001029A60DA68CF
:1003EC0022F00302DA607047000402400A4B1A68DC
:1003FC0022F440421A601A6842F480421A605A6829
:10040C0022F080025A609A6842F480429A60DA685C
:10041C0022F44042DA607047000402400A4B1A682A
:10042C0022F040521A601A6842F080521A605A68E0
:10043C0022F480425A609A6842F080529A60DA68DC
:10044C0022F04052DA6070470004024030B4254C70
:10045C00256804F58064246804F0030C80F800C05F
:10046C00C4F381000870C4F301111170C5F381113C
:10047C00029A1170C4F381121A70C4F30122039B07
:10048C001A70C5F38125059B1D70C4F38122049B52
:10049C001A70C4F30132069B1A70C4F38132079BA5
:1004AC001A70C4F30142089B1A70C4F38142099B71
:1004BC001A70C4F301520A9B1A70C4F381520B9B3D
:1004CC001A70C4F301620C9B1A70C4F381620D9B09
:1004DC001A70C4F301720E9B1A70A40F0F9B1C7040
:1004EC0030BC7047000C0240DFF830D00C480D498E
:1004FC000D4A002302E0D458C4500433C4188C4273
:10050C00F9D30A4A0A4C002301E013600432A242D8
:10051C00FBD300F011F8FFF763FE704700000320D7
:10052C000000002000000020AC05000800000020A6
:10053C0030000020FEE7000070B50D4D0D4C641B23
:10054C00A4100026A64209D10B4D0C4C00F018F853
:10055C00641BA4100026A64205D170BD55F8043BBF
:10056C0098470136EEE755F8043B98470136F2E719
:10057C00A4050008A4050008A4050008A8050008A7
:10058C00F8B500BFF8BC08BC9E467047F8B500BF74
:08059C00F8BC08BC9E46704744
:0405A400D101000879
:0405A800AD01000899
:04000005080004F5F6
:00000001FF
